:020000040800F2
:100000005813002045010008E1230008E3230008FD
:10001000E7230008EB230008EF230008000000009E
:10002000000000000000000000000000F3230008B2
:10003000F523000800000000F7230008F92300085A
:100040005F0100085F0100085F0100085F01000810
:100050005F0100085F0100085F0100085F01000800
:100060005F0100085F0100085F0100085F010008F0
:100070005F0100085F0100085F0100085F010008E0
:100080005F0100085F0100085F0100085F010008D0
:100090005F0100085F0100085F0100085F010008C0
:1000A0005F0100085F0100085F0100085F010008B0
:1000B0005F010008C91E00085F0100085F01000819
:1000C0005F0100085F0100085F0100085F01000890
:1000D0005F0100080D2200082F210008972000086A
:1000E0005F0100085F0100085F0100085F01000870
:1000F0005F0100085F0100085F0100085F01000860
:100100005F0100085F0100085F0100085F0100084F
:100110005F0100085F0100085F0100085F0100083F
:100120005F0100085F0100085F0100085F0100082F
:10013000DFF80CD00BF06EFF00480047511D00089F
:10014000581300200648804706480047FEE7FEE7B0
:10015000FEE7FEE7FEE7FEE7FEE7FEE7FEE7FEE777
:1001600047020008310100080CB500200190009002
:100170006C48006840F480306A49086000BF6948F4
:10018000006800F4003000900198401C0190009835
:1001900018B90198B0F5A06FF1D16248006800F479
:1001A000003010B10120009001E000200090009884
:1001B000012843D15C48006840F010005A490860AB
:1001C0000846006820F0030008600846006840F018
:1001D0000200086053484068524948600846406839
:1001E00048600846406840F48060486008464068BF
:1001F00020F47C1048600846406840F4E8104860ED
:100200000846006840F08070086000BF45480068FC
:1002100000F000700028F9D04248406820F0030048
:10022000404948600846406840F00200486000BF0E
:100230003C48406800F00C000828F9D10CBD10B50E
:10024000FFF792FF10BD10B53648006840F001007E
:1002500034490860084640683449084031494860DC
:1002600008460068324908402E4908600846006880
:1002700020F4802008600846406820F4FE004860B2
:100280004FF41F008860FFF7DAFF4FF00060294944
:10029000086010BD10B5002100200022214B5B68D2
:1002A00003F00C0121B1042906D0082928D107E068
:1002B000214B224C236027E01F4B204C236023E07E
:1002C000184B5B6803F47010164B5B6803F48032C4
:1002D000022303EB904022B9194B4343174C236090
:1002E0000DE0104B5B6803F4003323B1144B434320
:1002F000124C236003E0104B4343104C236003E097
:100300000D4B0E4C236000BF00BF064B5B68C3F370
:1003100003130C4CE15C094B1B68CB40074C23607A
:1003200010BD000000100240002002400000FFF855
:10033000FFFFF6FE08ED00E000127A00000000204A
:1003400000093D000400002031490143314A116099
:10035000704770B5002100230F22C47804B32D4CE0
:10036000246804F4E064C4F5E064210AC1F10403E4
:10037000CA40447804FA03F1847814402143090107
:10038000254C0678A155047804F01F050124AC40E3
:1003900005786D11AD0005F1E025C5F8004109E0D3
:1003A000047804F01F050124AC401C4D067876113A
:1003B00045F8264070BD1A4A0A400243154B1B1FE0
:1003C0001A60704739B1134A121D12680243114B6B
:1003D0001B1D1A6006E00F4A121D126882430D4B66
:1003E0001B1D1A607047042808D14FF0E0210969ED
:1003F00041F004014FF0E022116107E04FF0E021ED
:10040000096921F004014FF0E022116170470000FA
:100410000000FA050CED00E000E400E080E100E0FF
:1004200080FFFF1F10B50446CE48844208D1012149
:10043000042000F031FB0021042000F02DFB46E0F9
:10044000C948844208D10121082000F025FB002181
:10045000082000F021FB3AE0C448844208D1012181
:10046000102000F019FB0021102000F015FB2EE0F9
:10047000BF48844208D10121202000F00DFB00215B
:10048000202000F009FB22E0BA48844208D1012173
:10049000402000F001FB0021402000F0FDFA16E0B2
:1004A000B548844208D10121802000F0F5FA0021EE
:1004B000802000F0F1FA0AE0B048844207D101211F
:1004C000801500F0E9FA0021A01500F0E5FA10BD52
:1004D00010B50121084600F0DFFA0021012000F0EC
:1004E000DBFA10BD2DE9F041024600250026002070
:1004F00000230024002791F803C00CF00F0591F8A9
:1005000003C00CF0100CBCF1000F03D091F802C036
:100510004CEA050591F800C0BCF1000F31D0146819
:1005200000202BE04FF0010C0CFA00F3B1F800C0F2
:100530000CEA03069E4220D183004FF00F0C0CFA08
:1005400003F7BC4305FA03FC4CEA040491F803C02A
:10055000BCF1280F06D14FF0010C0CFA00FCC2F8D8
:1005600014C00AE091F803C0BCF1480F05D14FF068
:10057000010C0CFA00FCC2F810C0401C0828D1D3B2
:100580001460B1F800C0BCF1FF0F34DD54680020E6
:100590002EE000F1080C4FF0010808FA0CF3B1F856
:1005A00000C00CEA03069E4221D183004FF00F0CDD
:1005B0000CFA03F7BC4305FA03FC4CEA040491F877
:1005C00003C0BCF1280F05D100F1080C08FA0CF8A3
:1005D000C2F8148091F803C0BCF1480F07D100F1B4
:1005E000080C4FF0010808FA0CF8C2F81080401C03
:1005F0000828CED35460BDE8F0814FF6FF7101802A
:10060000022181700421C170704702460020936866
:100610000B400BB1012000E00020704701468868C4
:1006200080B2704702460020D3680B400BB1012016
:1006300000E0002070470146C86880B27047016141
:100640007047C2684A40C2607047416170470AB152
:10065000016100E041617047C16070474FF4803232
:100660000A438261816182618269826970470246C0
:100670000020434B18684FF68073184040EA021080
:1006800008433F4B186070473E49C8617047F0B55A
:100690000A46002300240021002500F00046B6F1A0
:1006A000004F02D1364EF16901E0354E7168C0F35A
:1006B000034583B200F44016B6F5401F08D121F07F
:1006C00070612F4E766826F070662D4F7E6012E0C6
:1006D00000F48016B6F5801F06D1032606FA05F44D
:1006E000A14341F0706106E0460D360103FA06F6BB
:1006F000B14341F0706122B1460D360103FA06F6AE
:10070000314300F00046B6F1004F02D11C4EF161BA
:1007100001E01B4E7160F0BD30B500228B071C0F4D
:100720000F2303FA04F2164B08338C1053F82430CD
:100730009343134C08348D1044F8253023468C1015
:1007400053F824308C07240F00FA04F423430C4C94
:1007500008348D1044F8253030BD0A49DC3108607A
:100760007047000000080140000C014000100140EB
:100770000014014000180140001C0140002001400D
:100780000000014000002042DF48006840F0010006
:10079000DD49086008464068DC490840DA4948609D
:1007A00008460068DA490840D749086008460068EA
:1007B00020F4802008600846406820F4FE0048606D
:1007C0004FF41F0088607047CF49096821F48031D9
:1007D000CD4A11601146096821F480211160B0F5FD
:1007E000803F03D0B0F5802F0ED106E0C6490968DE
:1007F00041F48031C44A116007E0C349096841F4FB
:10080000A021C14A116000E000BF00BF704710B5D1
:1008100001460022002300204A11012A02D1BA4CCD
:10082000236806E0022A02D1B74C236A01E0B64CE5
:10083000636A01F01F02012494401C400CB10120A6
:1008400000E0002010BD38B50020009000240025F5
:1008500000BF3120FFF7DBFF05460098401C0090E9
:100860000098B0F5A06F01D0002DF2D03120FFF735
:10087000CEFF08B1012400E00024204638BD014627
:100880000020A14A106820F0F80040EAC100106082
:100890007047A04908607047024600209A4B58688C
:1008A00020F47C1042EA01031843974B58607047CC
:1008B00098490866704701460020934A506820F026
:1008C00003000843506070478F48406800F00C00F8
:1008D0007047014600208C4A506820F0F000084321
:1008E0005060704701460020874A506820F4E0605D
:1008F00008435060704701460020834A506820F446
:10090000605040EAC1005060704729B17E4A527A77
:1009100002437D4B5A7204E07B4A527A82437A4BFF
:100920005A7270477B49D8310860704701460020F1
:10093000754A506820F440400843506070470021D9
:10094000714A20321170704A82F82010012802D0BA
:1009500004280AD104E001216B4A2032117005E01D
:100960000521694A2032117000E000BF00BF7047C6
:100970006949086070476449096A0143624A116223
:100980007047654944390860704730B5002100223E
:10099000002400235C4D6D6805F00C0121B1042991
:1009A00005D0082923D105E05C4D056022E05B4DB0
:1009B00005601FE0544D6D6805F47012524D6D686E
:1009C00005F48034022505EB92421CB9544D554381
:1009D00005600BE04C4D6D6805F400351DB1504DC0
:1009E0005543056002E04D4D5543056002E04B4D17
:1009F000056000BF00BF444D6D6805F0F0010909B6
:100A0000484D6B5C0568DD4045603F4D6D6805F401
:100A1000E061090A434D6B5C4568DD4085603A4DF5
:100A20006D6805F46051C90A3E4D6B5C4568DD4058
:100A3000C560354D6D6805F44041890B3A4D6B5CDE
:100A4000C568B5FBF3F5056130BD29B12E4A526981
:100A500002432D4B5A6104E02B4A526982432A4BD0
:100A60005A61704729B1284A92690243264B9A611C
:100A700004E0254A92698243234B9A61704729B169
:100A8000214AD2690243204BDA6104E01E4AD2694E
:100A900082431D4BDA61704729B11B4AD268024379
:100AA000194BDA6004E0184AD2688243164BDA60C8
:100AB000704729B1144A12690243134B1A6104E0CA
:100AC000114A12698243104B1A617047124940392A
:100AD000086070470F49C86470470B49C871704778
:100AE0000948406A40F080700749486270470146F3
:100AF0000020054A92680A400AB1012000E0002067
:100B00007047014988727047001002400000FFF8EA
:100B1000FFFFF6FE000042428004424200127A00CB
:100B200000093D00140000202400002010B50446F8
:100B3000FE48844208D10121C014FFF7ADFF002117
:100B4000E014FFF7A9FFC4E0B4F1804F08D1012100
:100B50000846FFF7AEFF00210120FFF7AAFFB8E02B
:100B6000F348844208D101210220FFF7A2FF0021AF
:100B70000220FFF79EFFACE0EE48844208D101213D
:100B80000420FFF796FF00210420FFF792FFA0E06A
:100B9000E948844208D101210820FFF78AFF00219B
:100BA0000820FFF786FF94E0E448844208D1012141
:100BB0001020FFF77EFF00211020FFF77AFF88E06A
:100BC000DF48844208D101212020FFF772FF002175
:100BD0002020FFF76EFF7CE0DA48844208D1012133
:100BE0004014FFF759FF00216014FFF755FF70E034
:100BF000D548844209D10121C804FFF74DFF0021E7
:100C00004FF40020FFF748FF63E0D048844209D149
:100C100001210805FFF740FF00214FF48010FFF786
:100C20003BFF56E0CA48844209D101214805FFF73D
:100C300033FF00214FF40010FFF72EFF49E0C548B5
:100C4000844208D101214020FFF733FF00214020DA
:100C5000FFF72FFF3DE0C048844208D101218020EA
:100C6000FFF727FF00218020FFF723FF31E0BB487B
:100C7000844208D101218015FFF71BFF0021A01538
:100C8000FFF717FF25E0B648844209D10121080487
:100C9000FFF702FF00214FF48030FFF7FDFE18E060
:100CA000B048844209D101214804FFF7F5FE002134
:100CB0004FF40030FFF7F0FE0BE0AB48844208D160
:100CC00001218804FFF7E8FE00214FF48020FFF7A0
:100CD000E3FE10BD00220288944B98420ED0994B3F
:100CE00098420BD0B0F1804F08D0914B984205D07C
:100CF000904B984202D0904B984204D14FF68F739C
:100D00001A404B881A438D4B984207D08C4B98421F
:100D100004D04FF6FF431A40CB881A4302808B88D9
:100D200083850B880385814B98420BD0854B984275
:100D300008D08B4B984205D08A4B984202D08A4B00
:100D4000984201D10B7A038601238382704770B5E4
:100D5000002400220023058C4FF6FE7635400584E2
:100D6000028C8388048B4FF68F752C40B51E2C4067
:100D70000D882C43751E2A400D892A434D882A432D
:100D80006A4DA8420BD06F4DA84208D0744DA842BE
:100D900005D0744DA84202D0734DA84213D14FF62E
:100DA000F7752A404D892A434FF6FB752A408D88F6
:100DB0002A434FF6FF652B404FF6FF552B408D8998
:100DC0002B43CD892B4383800483CD888586028481
:100DD00070BD70B5002400220023058C4FF6EF761D
:100DE00035400584028C8388048B48F6FF752C40BF
:100DF0004FF6FF452C400D884FF6FF7606EA052595
:100E00002C434FF6DF752A400D8906EA05152A4363
:100E10004D8806EA05152A43444DA84202D0494DA3
:100E2000A8421DD14FF67F752A404D894FF6FF76B7
:100E300006EA05152A434FF6BF752A408D8806EA53
:100E400005152A434FF6FF352B404FF2FF752B4017
:100E50008D8906EA85052B43CD8906EA85052B4356
:100E600083800483CD880587028470BD70B500241B
:100E700000220023058C4FF6FF6635400584028C66
:100E80008388848B4FF68F752C404FF6FC752C4071
:100E90000D882C434FF6FF552A400D894FF6FF76FB
:100EA00006EA05252A434D8806EA05252A431F4DF3
:100EB000A84202D0234DA8421DD14FF2FF752A400F
:100EC0004D894FF6FF7606EA05252A434FF6FF3592
:100ED0002A408D8806EA05252A434EF6FF752B40E9
:100EE0004DF6FF752B408D8906EA05152B43CD89FC
:100EF00006EA05152B4383808483CD888587028489
:100F000070BD70B5002200230024058C4EF6FF76DC
:100F100035400584038C8488828B48F6FF752A400F
:100F20004FF6FF452A400D8820E00000002C0140CC
:100F30000004004000080040000C00400010004089
:100F40000014004000340140004C014000500140BA
:100F50000054014000180040001C004000200040E8
:100F60000040014000440140004801404FF6FF7638
:100F700006EA05252A434DF6FF752B400D8906EA42
:100F800005352B434D8806EA05352B43FA4DA8421B
:100F900002D0FA4DA84208D14BF6FF752C408D893E
:100FA0004FF6FF7606EA85152C4384808283CD8830
:100FB000A0F84050038470BD828B4FF2FF331A407B
:100FC0008283828B4FF6FF7303EA01231A438283E5
:100FD0007047F0B50C461546002200210026078C0C
:100FE0004EF6FF7C07EA0C070784828B018C4FF6D4
:100FF000FF7707EA043640F6FF473A404FF6FF779F
:1010000007EA05273A434FF6FF7707EA03373A43E3
:10101000D94FB8420ED0D94FB8420BD0B0F1804F63
:1010200008D0D74FB84205D0D64FB84202D0D64FDD
:10103000B84206D14DF6FF77394046F48057394320
:1010400005E047F6FF57394044F48057394382831F
:101050000184F0BD828B4FF6F3731A408283828B3A
:101060000A4382837047F0B50C46154600220021E2
:101070000026078C4FF6FF6C07EA0C070784828B6B
:10108000018C4FF6FF7707EA04264FF60C773A40BB
:101090004FF6FF7707EA03172F433A43B64FB8429C
:1010A0000ED0B64FB8420BD0B0F1804F08D0B44F3D
:1010B000B84205D0B34FB84202D0B34FB84206D1C0
:1010C0004FF6FF57394046F48077394305E04FF239
:1010D000FF57394044F48077394382830184F0BD5F
:1010E000028B4FF2FF331A400283028B4FF6FF73DD
:1010F00003EA01231A4302837047F0B50C461546F4
:10110000002200210026078C4FF6EF7C07EA0C072F
:101110000784028B018C4FF6FF7707EA041640F62E
:10112000FF473A404FF6FF7707EA03373A434FF657
:10113000FF7707EA05273A438F4FB8420ED08F4F0B
:10114000B8420BD0B0F1804F08D08D4FB84205D0D7
:101150008C4FB84202D08C4FB84206D14FF6DF77A1
:10116000394046F01007394305E04FF65F773940C4
:1011700044F01007394302830184F0BD028B4FF61F
:10118000F3731A400283028B0A4302837047F0B55F
:101190000C46154600220021068C4FF6FE773E4095
:1011A0000684028B018C4FF60C7632407E1C06EAD8
:1011B00003162E433243704EB0420ED06F4EB042F3
:1011C0000BD0B0F1804F08D06D4EB04205D06D4EBF
:1011D000B04202D06C4EB04206D14FF6FD7631409F
:1011E00044F00106314305E04FF6F576314044F016
:1011F0000106314302830184F0BD70B505460C46FB
:101200005D4885420ED05D4885420BD0B5F1804FD8
:1012100008D05B48854205D05A48854202D05A48DA
:10122000854200D100E000BF208850B92389A28800
:1012300061882846FFF7ABFFE1882846FFF79EFF4D
:1012400025E0208804280AD12389A28861882846BD
:10125000FFF753FFE1882846FFF742FF17E0208899
:1012600008280AD12389A28861882846FFF7FBFE57
:10127000E1882846FFF7EEFE09E02389A28861880D
:101280002846FFF7A6FEE1882846FFF795FE70BDC9
:101290002DE9F04105460C4600260127608808B973
:1012A000022600E00026A088012801D1022700E0E4
:1012B00001272088A0B92389A28861882846FFF7E2
:1012C00066FFE1882846FFF759FF23893A463146F1
:1012D0002846FFF712FFE1882846FFF701FF13E0D9
:1012E0002389A28861882846FFF707FFE1882846FE
:1012F000FFF7F6FE23893A4631462846FFF747FFB7
:10130000E1882846FFF73AFFBDE8F0810A884B885C
:101310001A438B881A43CB881A430B891A434B898B
:101320001A438B891A43A0F8442070474FF6FF7187
:10133000818000210180C1804180017270470021BD
:10134000018041808180C180018141818181C18191
:101350007047002101804180012181800021C180EE
:10136000018170470021018041808180C18001811D
:101370004181818170470000002C01400034014010
:101380000004004000080040000C004021B1028829
:1013900042F00102028004E002884FF6FE731A4018
:1013A0000280704731B1B0F8442042F40042A0F806
:1013B000442005E0B0F84420C2F30E02A0F8442017
:1013C00070471AB183890B43838102E083898B4381
:1013D000838170478182704741EA0203A0F8483058
:1013E00070471AB183890B43838102E083898B4361
:1013F0008381704701894FF6F8721140018170476F
:101400000A46002101894FF68F731940114301816B
:10141000704730B504460D4629462046FFF7F0FFD9
:10142000208940F00700208130BD2DE9F0410446BD
:101430000D4616461F46602D06D13B460122314619
:101440002046FFF75AFE05E03B4601223146204682
:10145000FFF79DFE29462046FFF7D2FF208940F086
:1014600007002081BDE8F08130B50C4600210189DC
:10147000C9B24FF6FF7505EA0325154325432943F5
:10148000018130BD2DE9F04105460E4617469846CC
:10149000002443463A4631462846FFF7E5FF2C89AB
:1014A0004FF6F870044044F007044FF68F70044084
:1014B00044F070042C81BDE8F081F0B504460D467F
:1014C00016461F463B46324629462046FFF7CCFFCC
:1014D000208940F480402081F0BD018582827047E0
:1014E0000A46002101884FF68F731940114301808D
:1014F0007047F0B50C4615461E4600210022002319
:101500000189028B038C4FF6F877394021434FF65F
:10151000FC473A4040F201173A434FF6DD773B4033
:101520004FF6FF7707EA06172F433B4301810283FB
:101530000384F0BD0A460021018B4FF68F731940DA
:101540001143018370470A460021018B48F6FF735F
:1015500019404FF6FF7303EA0223194301837047D2
:101560000A460021818B4FF68F7319401143818306
:1015700070470A460021818B48F6FF7319404FF6E9
:10158000FF7303EA022319438183704721B1028864
:1015900042F08002028004E002884FF67F731A4016
:1015A0000280704721B1828842F00402828004E008
:1015B00082884FF6FB731A408280704721B182887F
:1015C00042F00802828004E082884FF6F7731A40E6
:1015D0008280704721B1828842F00102828004E05B
:1015E00082884FF6FE731A40828070470A460021B7
:1015F000018B4FF6F77319401143018370470A4678
:101600000021018B4FF2FF7319404FF6FF7303EA7D
:1016100002231943018370470A460021818B4FF64C
:10162000F77319401143818370470A460021818B6B
:101630004FF2FF7319404FF6FF7303EA0223194379
:10164000818370470A460021018B4FF6FB731940D6
:101650001143018370470A460021018B4FF6FF3387
:1016600019404FF6FF7303EA0223194301837047C1
:101670000A460021818B4FF6FB7319401143818389
:1016800070470A460021818B4FF6FF3319404FF611
:10169000FF7303EA02231943818370470A4600213E
:1016A000018B4FF67F7319401143018370470A463F
:1016B0000021018BC1F30E014FF6FF7303EA0223F1
:1016C0001943018370470A460021818B4FF67F73CF
:1016D00019401143818370470A460021818BC1F371
:1016E0000E014FF6FF7303EA02231943818370470B
:1016F0000A460021018C4FF6FD7319401143018405
:1017000070470A460021018C4FF6F77319401143C8
:10171000018470470A460021018C4FF6DF7319409F
:101720004FF6FF7303EA02131943018470470A4618
:101730000021018C4FF67F7319404FF6FF7303EAC7
:1017400002131943018470470A460021018C4FF6A9
:10175000FF5319404FF6FF7303EA02231943018434
:1017600070470A460021018C4FF2FF7319404FF673
:10177000FF7303EA02231943018470470A460021DC
:10178000018C4DF6FF7319404FF6FF7303EA0233E5
:1017900019430184704730B5002301248C40A3B263
:1017A000048C9C430484048C02FA01F5ADB22C43F2
:1017B000048430BD30B5002304248C40A3B2048CD3
:1017C0009C430484048C02FA01F5ADB22C430484DA
:1017D00030BD70B50346002000241846183001259E
:1017E0008D40ACB21D8CA5431D8409B1082909D1D7
:1017F00000EB6100056825F070050560056815437C
:1018000005600EE00D1FC5F34E052844056825F45C
:10181000E045056005684FF6FF7606EA0226354387
:10182000056070BD21B1028842F00202028004E02E
:1018300002884FF6FD731A400280704721B102887A
:1018400042F00402028004E002884FF6FB731A4063
:101850000280704721B1828842F08002828004E0D9
:1018600082884FF67F731A408280704702884FF655
:10187000F7731A40028002880A4302807047828808
:101880004FF68F731A40828082880A4382807047A5
:1018900002894FF6F8731A40028102890A430281D5
:1018A000704702894FF67F731A40028102890A430A
:1018B00002817047818470478185704781867047B7
:1018C0000187704781877047A0F8401070470288F1
:1018D0004FF6FF431A40028002880A430280704795
:1018E0000146888E70470146088F70470146888FF1
:1018F00070470146B1F8400070470146888C704738
:101900000146088D704702460020138A0B400BB138
:10191000012000E000207047CA430282704730B5C2
:101920000246002000230024158A05EA0103958958
:1019300005EA010413B10CB1012000E0002030BD24
:10194000CA4302827047000010B50446FB48844237
:1019500009D101218803FFF79FF800214FF480404F
:10196000FFF79AF832E0F648844209D10121480491
:10197000FFF79FF800214FF40030FFF79AF825E0B9
:10198000F048844209D101218804FFF792F8002130
:101990004FF48020FFF78DF818E0EB48844209D11E
:1019A0000121C804FFF785F800214FF40020FFF75C
:1019B00080F80BE0E548844208D101210805FFF7D3
:1019C00078F800214FF48010FFF773F810BD2DE96F
:1019D000F04786B005460E460024A24600BFA14649
:1019E0000027B08900B100BF2F462C8A4CF6FF704B
:1019F0000440F08804432C82AC894EF6F310044076
:101A0000B08831890843718908430443AC81AC8AAA
:101A10004FF6FF400440B0890443AC8201A8FEF7B2
:101A2000B4FFC648874202D1DDF810A001E0DDF81E
:101A30000CA0A88900F4004040B10AEBCA0000EBFA
:101A40000A1031684900B0FBF1F807E00AEBCA0060
:101A500000EB0A1031688900B0FBF1F86420B8FB94
:101A6000F0F004012009642101FB1089A88900F429
:101A7000004040B1322000EBC900B0FBF1F000F0B3
:101A80000700044308E0322000EB09106421B0FB9A
:101A9000F1F000F00F0004432C8106B0BDE8F087A0
:101AA0004FF41651016000218180C18001810C2119
:101AB000418100218181704710B502460020108AC3
:101AC0004FF2FF0318400B884C8823438C88234334
:101AD000CC8823431843108210BD0021018041802F
:101AE0008180C180704721B1828942F40052828195
:101AF00004E082894DF6FF731A4082817047F0B589
:101B00000346002400260025002040F66A17B9424B
:101B100000D100BF1846C1F3421401F01F0601278F
:101B200007FA06F5012C01D10C3004E0022C01D19A
:101B3000103000E014301AB107682F43076002E04C
:101B40000768AF430760F0BD1AB1838A0B438382F5
:101B500002E0838A8B4383827047028A4FF6F073D8
:101B60001A400282028A0A430282704782894FF237
:101B7000FF731A40828182890A438281704721B1B2
:101B8000828942F00202828104E082894FF6FD736D
:101B90001A4082817047028A4FF6DF731A40028230
:101BA000028A0A430282704721B1028A42F48042CB
:101BB000028204E0028A4BF6FF731A4002827047E9
:101BC000C1F308028280704701468888C0F308008C
:101BD0007047818941F0010181817047028BD2B247
:101BE0000283028B42EA012202837047028B02F4D5
:101BF0007F420283028B0A430283704721B1828AAB
:101C000042F02002828204E0828A4FF6DF731A409B
:101C10008282704721B1828A42F01002828204E0FF
:101C2000828A4FF6EF731A408282704721B1828A0E
:101C300042F00802828204E0828A4FF6F7731A406B
:101C40008282704721B1828942F40042828103E09E
:101C50008289C2F30E028281704721B1828A42F4E6
:101C60000062828204E0828A4FF2FF731A4082820D
:101C70007047828A4FF6FB731A408282828A0A4337
:101C80008282704721B1828A42F00202828204E09D
:101C9000828A4FF6FD731A40828270470246002006
:101CA000B1F5007F00D100BF13880B400BB10120BC
:101CB00000E00020704701F40072B2F5007F00D10F
:101CC00000BFCA430280704770B50246002400235B
:101CD0000025002040F66A16B14200D100BFC1F3D2
:101CE000421501F01F03012606FA03F3012D02D16C
:101CF0009689334006E0022D02D1168A334001E076
:101D0000968A33400C12012606FA04F416883440F1
:101D100013B10CB1012000E0002070BD10B500220D
:101D2000002340F66A14A14200D100BF0A12012428
:101D30009440A3B2DC43048010BD00000038014091
:101D40000044004000480040004C0040005000406B
:101D500002F0DAFE08F06CFB642001F031FF012193
:101D60004548FFF713FB45480021016041600181B0
:101D700081721821424809F00EFD1821414809F0EE
:101D80000AFD2C21404809F006FD40480021016071
:101D9000416038213E4809F0FEFC3E4800210160C8
:101DA00041608160002000F02AFC6E203A4981F8F1
:101DB00031005FE0012039490870334804F08FFAA0
:101DC0002E4804F0AAFF344804F034FF3449087068
:101DD0002A4801792A4A334804F039FF3148036B15
:101DE000027C314801782F48183004F07FFA02F065
:101DF000A4F82E480088082805DB00202B4908801D
:101E00002B4802F03DFA2B48008804280EDB002006
:101E1000284908801948407920B102212648FEF758
:101E200014FC03E002212448FEF709FC1348407922
:101E300000BB1248C079012812D120480088B0F5B3
:101E4000C87F06DB0D480A3002F05CFC00201B490D
:101E500008800A48807A03280CD102F0D2FB09E0FE
:101E600002F0A7FA16490870084602F01BFB154855
:101E700003F0C4FF9EE7000000040040C4090020F6
:101E8000500900206809002024090020DD030020FB
:101E9000D0090020080A0020140A00204A0000206F
:101EA0002900002080090020470000203800002081
:101EB000300000203A000020000C014042000020C9
:101EC0002A000020C00300202DE9F041FE480088D0
:101ED00000F00100002872D04FF6FE70FA49088029
:101EE000FA480078401CF9490870F9480088401CFD
:101EF000F7490880F7480088401CF6490880F648F2
:101F00000088401CF4490880F4480088401CF349CC
:101F10000880F3480088401CF1490880F148008897
:101F2000401CF0490880F0480088401CEE490880B9
:101F3000EE480088401CED490880ED480088401CB0
:101F4000EB490880EB48007801280CD1EA4800886A
:101F5000401CE949088008460088B0F5C87F02DBCC
:101F60004FF4C8700880E548807A20B9E3480089BA
:101F7000401CE2490881E148807920B9DF48808827
:101F8000401CDE498880D2480088022863DB00209C
:101F9000CF490880DA4AA2F10801081D08F093FA37
:101FA000002851D1D64808388168D64809F05DFC30
:101FB0000446002109F040FF02D2002013E068E04F
:101FC000CF4808388168CF4809F04FFC0446CE4915
:101FD00009F03CFF01D2CC4805E0C94808388168C7
:101FE000C84809F042FCC6490839C860C749B1F978
:101FF000180009F046FE0646C54AC64B09F052FDD8
:10200000044609F0FDFEC1494862B1F91A0009F021
:1020100038FE0646BE4ABF4B09F044FD044609F0AF
:10202000EFFE0146B94881620146B1F91C0009F092
:1020300028FE0646B64AB74B09F034FD044609F0BF
:10204000DFFE0146B148C162AD4B083BDA68196852
:10205000586802F0E7FEAA490839486802F0B8FC5F
:102060000446AD4909F0F2FE09D9A54908390868C6
:1020700002F0AEFC0446A84909F0E8FE03D80020AF
:10208000A64948710870A64804F058F9A54804F01C
:1020900019FFBDE8F08110B5A348008800F02000CA
:1020A000002842D0A048001D0088C4B29F48A04923
:1020B000097844549E480078401C9D4908709B480C
:1020C0000078AA2803D199484078AF2803D000208F
:1020D0009749087010BD9548C078401D944909780B
:1020E00088421BD191480078AA2801D1012000E044
:1020F0000020AF218D4A5170084058B110468078B9
:10210000012807D18549101D04F0A8FD874800214A
:102110000160818000208649087006E084480078CC
:10212000322802DD00208249087000BFD2E72DE985
:10213000F0418048008800F02000002864D07D48ED
:10214000001D0088C4B27C48007800F03F000228DF
:102150003CD17A494978794A127841EA022009F05B
:1021600090FD07460022764B09F00EFD054609F06A
:1021700047FE6B491839886088687249096809F018
:1021800074FB804602F024FC054609F0FDFD06467E
:102190004FF066326C4B09F01FFE04D800206049F6
:1021A0001839886004E05E4818388068654908601E
:1021B00002220023654903C909F088FA00214A4038
:1021C0004B401A4302D100205B4908705A480078FE
:1021D00000F03F0059490C5457480078401C5649BC
:1021E00008705A48D0E90020521C40F100005749BD
:1021F000C1E900200846D0E90010554B5940014381
:1022000002D10120514A03C2BDE8F08110B5514806
:10221000008800F02000002841D04E48001D0088B2
:10222000C4B23E48007A00283AD14B48007800F00A
:102230003F014A488078401D814219D1474801F04A
:10224000C9FF2D480088B0F5C87F05DA44480088EA
:10225000401C4349088008E027480088B0F5C87F43
:1022600003D13F4800883E49088000203D4908705E
:10227000AA2C05D101203B4908700020364908707E
:102280003848007801280AD13348007800F03F0030
:1022900032490C5430480078401C2F4908709EE0A9
:1022A0001E48007A012867D11C48407A002863D173
:1022B0002D48007830B9132C5FD12C48008810B914
:1022C0002A4855E072E058E0100400402800002041
:1022D00032000020340000203600002038000020AA
:1022E0003A000020420000203C0000203E00002078
:1022F000400000204A000020440000202409002063
:10230000D0070020000034430080B343180B0020A6
:10231000833EDAFDFF3FAF3F0000F041C4090020DB
:1023200098090020E50300200048004068040020D0
:102330004B000020004400404E0000209A04002082
:1023400000408F40600000206666D63F50000020AD
:10235000DFAE52980038014058000020DA04002017
:1023600048000020590000205A0000205E00002094
:102370000088401C2149088031E0142C09D11F48F5
:102380000088012805D11D480088401C1B49088091
:1023900025E0412C23D11948008802281FD10020B4
:1023A0001749088001201749087018E0154800787F
:1023B000012814D11448124909884454104800884F
:1023C000401C0F49088008460088B0F5167F06DDDE
:1023D00001200E49487240F259200949088010BD79
:1023E000704700BFFEE700BFFEE700BFFEE700BF8B
:1023F000FEE7704770477047704700005E0000209E
:102400005C0000205A0000201A050020C4090020AA
:1024100008B501211020FEF725FB01210820FEF759
:1024200021FB3020ADF8000010208DF803000320C0
:102430008DF8020069463848FEF754F80320ADF8DD
:10244000000010208DF8030003208DF8020069467B
:102450003248FEF747F830212F48FEF7F0F8032105
:102460002E48FEF7ECF82E48806940F040002C49D9
:1024700088612C48006820F470602A49086008468A
:10248000006840F44070086026480C30006840F056
:10249000040024490C31086008BD10B504462248E8
:1024A0000088012806D0022809D003280CD004286F
:1024B00014D10EE002211948FEF7C7F813E00221FB
:1024C0001648FEF7BCF80EE002211448FEF7BDF8EE
:1024D00009E002211148FEF7B2F804E002210F489A
:1024E000FEF7ADF800BF00BF10480088401C0F4940
:1024F000088008460088A04206DD002008800A48BF
:102500000088401C0849088007480088192802DD17
:1025100000200549088010BD00100140000C01405A
:1025200000100240001801406400002066000020F6
:1025300070B5044608250121FE48FEF780F800BF6B
:102540000821FC48FEF781F800BF16E004F0800087
:1025500020B10421F748FEF772F803E00421F548A2
:10256000FEF773F80821F348FEF769F800BF082169
:10257000F048FEF76AF86006040E2800A5F1010194
:10258000CDB2E3D170BD70B5044608250121E948FC
:10259000FEF75BF80821E748FEF757F800BF16E0A2
:1025A00004F0800020B10421E248FEF748F803E07F
:1025B0000421E048FEF749F80821DE48FEF73FF81D
:1025C00000BF0821DB48FEF740F86006040E280033
:1025D000A5F10101CDB2E3D170BD70B504460D4641
:1025E00005F1B001C8B2FFF7CEFF102141EA141087
:1025F000FFF7C9FF04F00F00FFF7C5FF70BD70B50E
:102600000646002415E004F1B001C8B2FFF7BBFF95
:102610000120FFF7B8FF1020FFF7B5FF002504E009
:102620003046FFF785FF681CC5B2802DF8DB601CC3
:10263000C4B2082CE7DB70BD70B5002415E004F1CE
:10264000B001C8B2FFF79FFF0120FFF79CFF1020E9
:10265000FFF799FF002504E00020FFF769FF681CE1
:10266000C5B2802DF8DB601CC4B2082CE7DB70BD5E
:1026700007E040F2375100BF0A00A1F10101FBD190
:10268000401E0028F5D1704710B504462046FFF7DC
:102690007AFF10BD70B504462546E11704EB1171B1
:1026A0000911A4EB0111C8B2FFF76DFF2546E11730
:1026B00004EB117109111031C8B2FFF764FF70BD4E
:1026C00010B504462020FFF75EFF2046FFF75BFFB2
:1026D00010BD70B505460C462120FFF754FF284673
:1026E000FFF751FF2046FFF74EFF70BD70B505465E
:1026F0000C462220FFF747FF2846FFF744FF2046FD
:10270000FFF741FF70BD10B5044644F04000FFF7ED
:102710003AFF10BD10B504468120FFF734FF204674
:10272000FFF731FF10BD10B504468D20FFF72BFFDA
:1027300044F01000FFF727FF10BD10B5044644F029
:10274000A000FFF720FF10BD10B5044644F0A40020
:10275000FFF719FF10BD10B5044644F0A600FFF7BF
:1027600012FF10BD10B50446A820FFF70CFF20464D
:10277000FFF709FF10BD10B5044644F0AE00FFF7A7
:1027800002FF10BD10B5044644F0B000FFF7FBFE99
:1027900010BD10B5044644F0C000FFF7F4FE10BDB4
:1027A00010B50446D320FFF7EEFE2046FFF7EBFE00
:1027B00010BD10B50446D520FFF7E5FE2046FFF713
:1027C000E2FE10BD10B50446D920FFF7DCFE20461E
:1027D000FFF7D9FE10BD10B50446DA20FFF7D3FE8F
:1027E00044F00200FFF7CFFE10BD10B50446DB2019
:1027F000FFF7C9FE2046FFF7C6FE10BD10B5E32067
:10280000FFF7C1FE10BD08B501212020FEF72AF90F
:102810000F20ADF8000003208DF8020010208DF885
:10282000030069464348FDF75DFE08214148FDF776
:1028300006FF02213F48FDF708FF3220FFF718FF8F
:1028400002213C48FDF7FBFEAE20FFF79CFED520A1
:10285000FFF799FE8020FFF796FEA820FFF793FE72
:102860003F20FFF790FED320FFF78DFE0020FFF7FB
:102870008AFE4020FFF787FE8D20FFF784FE14209C
:10288000FFF781FE2020FFF77EFE0220FFF77BFE90
:10289000A120FFF778FEC820FFF775FEDA20FFF7CA
:1028A00072FE1220FFF76FFE8120FFF76CFECF2033
:1028B000FFF769FED920FFF766FEF120FFF763FE00
:1028C000DB20FFF760FE4020FFF75DFEA420FFF74E
:1028D0005AFEA620FFF757FEAF20FFF754FE002058
:1028E000FFF78DFE00210846FFF777FE08BD2DE9B2
:1028F000F04105460C46164621462846FFF76DFE78
:102900002046E11704EB5171C910A4EBC10106FA8E
:1029100001F1CFB2B02101EBE401C8B2FFF733FE01
:10292000102141EA1510FFF72EFE05F00F00FFF70A
:102930002AFE01E0001401403846FFF7F9FDBDE82A
:10294000F0812DE9F04105460E464FF4047095FBE9
:10295000F0F005B24FF4047096FBF0F006B20127D8
:102960006CE007F1B001C8B2FFF70DFE0120FFF7E0
:102970000AFE1020FFF707FEDDB9002404E0002066
:10298000FFF7D6FD601CC4B23E2CF8DB3E2404E009
:10299000FF20FFF7CDFD601CC4B2402CF8DB4024C3
:1029A00004E00020FFF7C4FD601CC4B27F2CF8DBFC
:1029B00042E0002D16DD002404E00020FFF7B8FD02
:1029C000601CC4B2C5F13E00A042F6DCC5F13E0079
:1029D000C4B204E0FF20FFF7ABFD601CC4B23E2C84
:1029E000F8DB29E0002D27DA002404E00020FFF7BF
:1029F0009FFD601CC4B23E2CF8DB3E2404E0FF20A7
:102A0000FFF796FD601CC4B2402CF8DB402404E0C4
:102A1000FF20FFF78DFD601CC4B2C5F14000A0424D
:102A2000F6DCC5F14000C4B204E00020FFF780FDF1
:102A3000601CC4B27F2CF8DB781CC7B2032F90DB7C
:102A400005276CE007F1B001C8B2FFF79CFD01203B
:102A5000FFF799FD1020FFF796FDDEB9002404E092
:102A60000020FFF765FD601CC4B23E2CF8DB3E245D
:102A700004E0FF20FFF75CFD601CC4B2402CF8DBD3
:102A8000402404E00020FFF753FD601CC4B27F2CFB
:102A9000F8DB42E0002E16DD002404E00020FFF702
:102AA00047FD601CC4B2C6F13E00A042F6DCC6F190
:102AB0003E00C4B204E0FF20FFF73AFD601CC4B240
:102AC0003E2CF8DB29E0002E27DA002404E0002069
:102AD000FFF72EFD601CC4B23E2CF8DB3E2404E060
:102AE000FF20FFF725FD601CC4B2402CF8DB40241A
:102AF00004E0FF20FFF71CFD601CC4B2C6F14000DB
:102B0000A042F6DCC6F14000C4B204E00020FFF7AA
:102B10000FFD601CC4B27F2CF8DB781CC7B2072FF6
:102B200090DBBDE8F0812DE9F04704468846154664
:102B30004FF000090026002741462046FFF74DFDD3
:102B40001CE0E85D203800F0FF097E2C04DD002445
:102B500008F1010000F0FF08002609E009EB490137
:102B6000FE4A02EB4101885DFFF7E2FC701CC6B231
:102B7000062EF3DBA01DC4B2781CC7B2E85D0028A6
:102B8000DFD1BDE8F0872DE9F04706460F469046B5
:102B900000250024A14631E018F809002038C5B20C
:102BA000782E02DD0026781CC7B239463046FFF782
:102BB00014FD002407E004EB0511E94A505CFFF71F
:102BC000B7FC601CC4B2082CF5DB781CC1B23046DF
:102BD000FFF703FD002408E004EB05110831E04A8B
:102BE000505CFFF7A5FC601CC4B2082CF4DB06F1B6
:102BF0000800C6B209F1010000F0FF0918F8090049
:102C00000028C9D1BDE8F0872DE9F04781460F467D
:102C100090460024002601256BE00024012513E0E6
:102C2000D048005D18F8061088420BD1CD49601CD1
:102C3000095C701C18F80000814203D1C4EBC40089
:102C4000450005E0A01CC4B2C648005D7F28E7DC53
:102C500000BFB9F1760F03DD4FF00009781CC7B251
:102C600039464846FFF7B9FC012D1FD03946484682
:102C7000FFF7B3FC002406E0BB49485DFFF758FCB2
:102C80006D1C601CC4B20E2CF6DB781CC1B2484629
:102C9000FFF7A3FC002406E0B349485DFFF748FCBA
:102CA0006D1C601CC4B20E2CF6DB1CE0701CC6B29E
:102CB00039464846FFF791FC002404E00020FFF766
:102CC00037FC601CC4B2102CF8DB781CC1B248463B
:102CD000FFF783FC002404E00020FFF729FC601CC0
:102CE000C4B2102CF8DB09F10E0000F0FF09B01C93
:102CF000C6B218F8060000288FD1BDE8F087F8B5F5
:102D000006460F461546002427E0285D7F2814DD7F
:102D1000285D8DF80000601C285C8DF80100002003
:102D20008DF802006A4639463046FFF76DFF06F11E
:102D30000E00C6B2A01CC4B20FE0285D8DF80000E2
:102D400000208DF801006A4639463046FFF71BFF28
:102D500006F10800C6B2601CC4B2285D0028D4D1B8
:102D6000F8BDF8B505460C461646E006040E8DF88B
:102D7000006000208DF801006A4629462046FFF7D2
:102D8000D2FEF8BDF8B507460E4615460024F006FB
:102D9000060E27E0285D7F2814DD285D8DF80000F1
:102DA000601C285C8DF8010000208DF802006A4646
:102DB00039463046FFF728FF06F10E00C6B2A01CC8
:102DC000C4B20FE0285D8DF8000000208DF80100EE
:102DD0006A4639463046FFF7D6FE06F10800C6B20D
:102DE000601CC4B2285D0028D4D1F8BD2DE9FC4197
:102DF00007460E4614469846002500200090019094
:102E0000F006060E42F21070B4FBF0F00A21B0FB9F
:102E1000F1F201FB12008DF800004FF47A70B4FB60
:102E2000F0F0B0FBF1F201FB12008DF8010064201C
:102E3000B4FBF0F0B0FBF1F201FB12008DF80200E0
:102E40000A20B4FBF0F0B0FBF1F201FB12008DF8A8
:102E500003000A20B4FBF0F100FB11408DF80400E0
:102E600000BF07E01DF805003030C0B20DF80500C6
:102E7000681CC5B2052DF5DBC8F10500694642188E
:102E800039463046FFF77FFEBDE8FC812DE9F04F63
:102E900089B082468B461646994601270020059048
:102EA00006900790012500240490804600213046BA
:102EB00008F0C2FF06D286F00040039008F0FFFE43
:102EC000044603E0304608F0FAFE0446204608F0C7
:102ED000CAFE3146039008F0CBFC0490049808F039
:102EE00053FF0022214BCDE9000108F0DBFDCDE9C5
:102EF000020108F030FF804604E005EB8500450044
:102F0000781CC7B20A2094FBF0F090FBF5F0002883
:102F1000F3D142F2107094FBF0F00A2190FBF1F231
:102F200001FB1200C0B28DF814004FF47A7094FBCC
:102F3000F0F090FBF1F201FB1200C0B28DF8150029
:102F4000642094FBF0F090FBF1F201FB1200C0B2A0
:102F50008DF816000A2094FBF0F009E03ACD000845
:102F600025D1000862CF000881CF00080088C34047
:102F700090FBF1F201FB1200C0B28DF817000A209D
:102F800094FBF0F100FB1140C0B28DF818002E2028
:102F90008DF819004FF47A70B8FBF0F00A21B0FBFD
:102FA000F1F201FB12008DF81A006420B8FBF0F07A
:102FB000B0FBF1F201FB12008DF81B000A20B8FBF8
:102FC000F0F0B0FBF1F201FB12008DF81C000A20BA
:102FD000B8FBF0F100FB11808DF81D00002109F114
:102FE000060005AA1154002505E005A8405D303013
:102FF00005A948556D1C0A2DF7DB0021304608F065
:103000001BFF06D2781CC7B22D20C7F1050105AA07
:1030100050542E208DF81900002109F1060005AA50
:103020001154C7F1050005A9421851465846FFF74B
:103030007AFD09B0BDE8F08F2DE9F04F89B08246E6
:10304000894617469846DDF84CB0012007900020CD
:103050000490059006900124002500BF00264FEA49
:10306000C9604FEA10693846414608F055FE0546EA
:10307000284608F017FE3A464346CDE9000108F01D
:103080000EFDCDE902010022FE4BDDE9020108F050
:1030900009FDCDE9000108F05EFE064606E004EBFE
:1030A000840044000798401CC0B207900A20B5FB7A
:1030B000F0F0B0FBF4F00028F1D142F21070B5FB53
:1030C000F0F00A21B0FBF1F201FB12008DF81000C4
:1030D0004FF47A70B5FBF0F0B0FBF1F201FB120097
:1030E0008DF811006420B5FBF0F0B0FBF1F201FBAC
:1030F00012008DF812000A20B5FBF0F0B0FBF1F2DF
:1031000001FB12008DF813002E208DF815004FF4EE
:103110007A70B6FBF0F0B0FBF1F201FB12008DF813
:1031200016006420B6FBF0F0B0FBF1F201FB1200D8
:103130008DF817000A20B6FBF0F0B0FBF1F201FBAE
:1031400012008DF818000A20B6FBF0F100FB1160A8
:103150008DF8190000210BF1060004AA1154002477
:1031600005E004A8005D303004A90855641C0A2C51
:10317000F7DB2E208DF8150000210BF1060004AAC4
:1031800011541298C0F1050004A94218514648464E
:10319000FFF7F9FC09B0BDE8F08F2DE9F05F0646B6
:1031A0000F4690461C46DDF828A04FF0000BE117B3
:1031B00004EB5171C910A4EBC10131B92046E117EC
:1031C00004EB5171C1F3C70506E02046E11704EB9B
:1031D0005171C910491CCDB23D4614E02946304614
:1031E000FFF7FBF9B1460AE059460BF1010B1AF85B
:1031F0000100FFF79DF909F1010000F0FF09C14549
:10320000F2DB681CC5B2A542E8DDBDE8F09F70B5F1
:103210000026002411E021461020FFF7DEF91025DA
:1032200007E03146761C984A505CFFF781F9681C2C
:10323000C5B2702DF5DB601CC4B2082CEBDB70BD91
:1032400070B50026002411E021461C20FFF7C5F9C7
:103250001C2507E03146761C8C4A505CFFF768F964
:10326000681CC5B2582DF5DB601CC4B2082CEBDB22
:1032700070BDF8B506460F461446002000900225A2
:103280000DE00A2094FBF0F100FB11403030C0B299
:103290000DF805000A2094FBF0F0C4B26D1E002D5D
:1032A000EFDA6A4639463046FFF76DFCF8BDF8B5EF
:1032B00006460F4614460020009002250DE00A2025
:1032C00094FBF0F100FB11403030C0B20DF8050066
:1032D0000A2094FBF0F0C4B26D1E002DEFDA6A46AE
:1032E00039463046FFF71FFCF8BD2DE9F041054691
:1032F0000F46164600BF05EB45014906080E394644
:10330000FFF76BF900240AE006F1100101EB41011F
:103310005F4A02EB4101085DFFF70AF9641C062CC5
:10332000F2DBBDE8F0812DE9F04705460E46144674
:103330000A2094FBF0F100FB1140C7B20A2094FB75
:10334000F0F00A2190FBF1F201FB120000F0FF08FF
:10335000642094FBF0F000F0FF09A91CC8B23A46C3
:103360003146FFF7C2FF691CC8B242463146FFF73B
:10337000BCFF4A4631462846FFF7B7FFBDE8F08755
:103380002DE9F05F05468B4616463446002C00DAE0
:1033900064424FF47A7094FBF0F0C7B24FF47A7045
:1033A00094FBF0F100FB1140642190FBF1F000F080
:1033B000FF08642094FBF0F100FB11400A2190FB10
:1033C000F1F000F0FF090A2094FBF0F100FB11403E
:1033D00000F0FF0A3A4659462846FFF786FF691C67
:1033E000C8B242465946FFF780FFA91CC8B24A46F8
:1033F0005946FFF77AFFE91CC8B252465946FFF713
:1034000074FFBDE8F09F2DE9F05F05460E461446B7
:1034100042F21070B4FBF0F0C7B242F21070B4FB8D
:10342000F0F100FB11404FF47A71B0FBF1F000F0C5
:10343000FF080846B4FBF0F100FB11406421B0FB2B
:10344000F1F000F0FF096420B4FBF0F100FB114043
:103450000A21B0FBF1FA0A20B4FBF0F100FB114B9A
:103460003A4631462846FFF740FF691CC8B242463B
:103470003146FFF73AFFA91CC8B24A463146FFF76A
:1034800034FF07E00088C3406800002015D700081B
:103490003ACD0008E91CC8B252463146FFF725FF75
:1034A000291DC8B25A463146FFF71FFFBDE8F09FFD
:1034B0002DE9FC5F05460E4614466048B4FBF0F06B
:1034C000C7B25E48B4FBF0F100FB11445C48B4FBAA
:1034D000F0F000F0FF085A48B4FBF0F100FB114493
:1034E00042F21070B4FBF0F000F0FF0942F21070ED
:1034F000B4FBF0F100FB11404FF47A71B0FBF1F036
:1035000000F0FF0A0846B4FBF0F100FB1140642113
:10351000B0FBF1F000F0FF0B6420B4FBF0F100FB16
:1035200011400A21B0FBF1F001900A20B4FBF0F148
:1035300000FB114000903A4631462846FFF7D5FE81
:10354000691CC8B242463146FFF7CFFEA91CC8B27B
:103550004A463146FFF7C9FEE91CC8B25246314619
:10356000FFF7C3FE291DC8B25A463146FFF7BDFE1C
:10357000691DC8B23146019AFFF7B7FEA91DC8B24E
:103580003146009AFFF7B1FEBDE8FC9F10B5024638
:10359000012000E050430B00A1F10104E1B2F9D198
:1035A00010BD2DE9FF5F074691461D460E9E4FF068
:1035B000000A002433E0281B401EC1B20A20FFF796
:1035C000E5FFB9FBF0F00A21B0FBF1F201FB1208B4
:1035D000BAF1000F13D1681EA04210DDB8F1000F40
:1035E0000BD1B34606EBDB71491001FB0471C8B285
:1035F00020220199FFF7B5FB0FE04FF0010AB34617
:1036000006EBDB71491001FB0471C8B208F130010F
:10361000CAB20199FFF7A5FB00BF601CC4B2AC425F
:10362000C9DBBDE8FF9F38B50446062350220021C0
:1036300008460094FFF7B1FD38BD000040420F007E
:10364000A086010000B587B001210846FDF717FAF2
:1036500041F28730ADF814004720ADF8100000208B
:10366000ADF81600ADF8120004A94148FDF732FB91
:1036700004A94FF08040FDF72DFB6020ADF800005D
:103680000120ADF802000020ADF80600ADF80800FA
:1036900069464FF08040FDF75AFB0821C806FDF748
:1036A000A5FF69464FF08040FDF793FB0821C8064F
:1036B000FDF7A5FF69464FF08040FDF7D7FB0821D5
:1036C000C806FDF7A9FF69464FF08040FDF719FCD9
:1036D0000821C806FDF7A9FF01218807FDF756FF5D
:1036E00001218807FDF752FE07B000BD08B5012192
:1036F0000420FDF7B7F90F20ADF8000018208DF871
:10370000030003208DF8020069461A48FCF7EAFE20
:10371000FFF798FF08BD30B5B0F57A7F01DD4FF4B3
:103720007A70B1F57A7F01DD4FF47A71B2F57A7F64
:1037300001DD4FF47A72B3F57A7F01DD4FF47A73CD
:1037400000F21A444FF08045AC8601F21A442C87EF
:1037500002F21A44084D2C8003F21A442D06AC875D
:1037600030BD10B5029C016042608360C46010BD32
:103770000034014000080140400000403EB50446CE
:1037800001210220FDF77BF92E48FDF7CFF9ADF8B6
:1037900004404720ADF800000020ADF80600ADF869
:1037A000020069462748FDF795FA01212548FEF7F2
:1037B000B3F8012211462348FDF703FE00212148FA
:1037C000FDF7E4FD3EBD08B54FF4A060FCF7BCFD7D
:1037D0001D208DF8000001208DF8010000208DF8DB
:1037E000020001208DF803006846FCF7B2FD272097
:1037F0008DF8000000208DF801008DF802000120F6
:103800008DF803006846FCF7A4FD26208DF8000023
:1038100000208DF8010001208DF802008DF80300D2
:103820006846FCF796FD25208DF8000000208DF8F5
:1038300001008DF8020001208DF803006846FCF7B6
:1038400088FD08BD0004004010B586B00446012183
:103850002020FDF707F901218804FDF710F9012167
:103860000846FDF7FFF80121BE48FCF710FF4FF4B2
:103870008070ADF8140018208DF8170003208DF823
:10388000160005A9B848FCF72DFE4FF40070ADF8FE
:10389000140004208DF8170005A9B348FCF722FE98
:1038A00001940020ADF80800ADF80A00ADF80C0056
:1038B000ADF810000C20ADF80E0001A9AB48FEF7E2
:1038C00086F8012240F22551A848FEF718F9012197
:1038D000A648FEF708F906B010BD10B5044621460B
:1038E000A248FEF76DF900BFA048008800F08000F4
:1038F0000028F9D0204610BD10B5024600200CE08B
:1039000000BF9A4B1B8803F04003002BF9D0135CD7
:10391000964C241D2380431CD8B28842F0DB00BFA4
:10392000924B1B8803F04003002BF9D010BD2DE90A
:10393000F05F05460E46300108F09EF981468C493D
:1039400005FB01F008F098F98246494607F0C5FFEB
:103950000746384608F0CCF984B2204608F08CF9C6
:103960008346394607F084FF82464FF0834107F0D3
:1039700082FF814608F0BCF980464FF6FF7000EAEE
:10398000041404EB080084B27A48806940F02000F7
:10399000784988617448006820F07F607249086047
:1039A0000846006840F00B6008607248C06940F447
:1039B00000307049C8610846806940F001008861A4
:1039C0006D48406840F008006B49486069480069EC
:1039D00040F40030674908610846006920F400306F
:1039E000086166480480001D008842F20C0108430B
:1039F0006249091D08800846008840F480700880EC
:103A00000846008840F020000880BDE8F09F10B50F
:103A1000024600200DE000BF584B083B1B8803F016
:103A20004003002BF8D0135C544C241F2380431C0C
:103A3000D8B28842EFDB00BF504B083B1B8803F035
:103A40004003002BF8D010BD2DE9F05F05460E466F
:103A5000300108F011F98146454905FB01F008F0F5
:103A60000BF98246494607F038FF0746384608F00A
:103A70003FF984B2204608F0FFF88346394607F044
:103A8000F7FE82464FF0834107F0F5FE814608F0CD
:103A90002FF980464FF6FF7000EA041404EB08008B
:103AA00084B23448806940F0040032498861084695
:103AB000806940F4804088613148006820F47F606C
:103AC0002F4908600846006840F40B6008602948E8
:103AD000C06840F480402749C8600846C06820F4A8
:103AE0008040C86027480480001D008842F20C0115
:103AF00008432449091D08800846008840F4807066
:103B000008800846008840F020000880BDE8F09F4B
:103B100000BF1C490839098801F040010029F8D08C
:103B20001849091F0880704710B5024600200DE0B3
:103B300000BF144B083B1B8803F04003002BF8D058
:103B4000135C104C241F2380431CD8B28842EFDB47
:103B500000BF0C4B083B1B8803F04003002BF8D040
:103B600010BD000030001400001401400048004067
:103B700040420F0000100240000001400844004095
:103B800004080140083801404FF0E021096921F0A4
:103B900004014FF0E0221161C21700EB5272C2F330
:103BA000C702294B1A701946097801EB4102C2EB92
:103BB000C1114FF6FF7202EAC101244A1180704719
:103BC0000146224A12884A434FF0E0235A610022FC
:103BD0009A6101221A6100BF4FF0E022106900F0E3
:103BE00001021AB100F48032002AF5D000224FF011
:103BF000E0231A619A6170470146134A12784A43DA
:103C00004FF0E0235A6100229A6101221A6100BF3D
:103C10004FF0E022106900F001021AB100F4803286
:103C2000002AF5D000224FF0E0231A619A61704714
:103C3000002106E0002200E0521CB2F5FA7FFBD31F
:103C4000491C8142F6D37047680300206A030020B4
:103C50002DE9FE4F81460D4616461F46DDE90CABA9
:103C60004FF000080024504608F029F8019038462B
:103C700008F025F800B20290AA20FE4908704870AA
:103C8000012088700D20C870FB49484607F0F3FDFD
:103C9000009008F014F800B202909DF80900F54970
:103CA00008719DF808004871F349284607F0E3FDC4
:103CB000009008F004F800B202909DF80900ED4968
:103CC00088719DF80800C871EB49304607F0D3FDB4
:103CD000009007F0F4FF00B202909DF80900E5495A
:103CE00008729DF8080048729DF8090088729DF8D6
:103CF0000800C8729DF8070008739DF80600487315
:103D00009DF8050088739DF80400C873DB4840796E
:103D100010B9A020087406E0D8484079012802D1E3
:103D2000A120D4490874002406E0D248005D404434
:103D300000F0FF08601CC4B2112CF6DBCD4880F8FF
:103D40001180BDE8FE8F0FB500200021AA22C94BCB
:103D50001A705A7002229A701222DA709DF80120AD
:103D60001A719DF800205A719DF805209A719DF8EE
:103D70000420DA719DF809201A729DF808205A7201
:103D80009DF80D209A729DF80C20DA729DF815208E
:103D90001A739DF814205A739DF819209A739DF890
:103DA0001820DA739DF81D201A749DF81C205A748F
:103DB0009DF821209A749DF82020DA749DF8252022
:103DC0001A759DF824205A7500BF05E0A94A125CB7
:103DD0000A44D1B2421CD0B21628F7DBA54A91752D
:103DE0000FBD2DE9F84307460C4615460026AA20CC
:103DF000A04908704870102088701220C8709E4931
:103E0000384607F038FD804607F059FF00B20090B1
:103E10009DF80100974908719DF800004871964986
:103E2000204607F028FD804607F049FF00B20090C9
:103E30009DF801008F4988719DF80000C8718E4976
:103E4000284607F018FD804607F039FF00B20090C1
:103E50009DF80100874908729DF800004872002013
:103E60008872C872087348738873C873087448747A
:103E70008874C8740875487500BF05E07D49095C01
:103E80003144CEB2411CC8B21628F7DB794886759A
:103E9000BDE8F8831FB50C4600210022AA23037059
:103EA0004470042383709DF80930C3709DF8083076
:103EB00003719DF80D3043719DF80C30837100BF84
:103EC00004E0435C1344DAB24B1CD9B20729F8DB97
:103ED000C271FF2303721FBD00B56948C07B30B9B2
:103EE0000023122255216748FFF7D4FF14E06448ED
:103EF000C07B012806D10023132255216148FFF71A
:103F0000C9FF09E05E48C07B022805D100231422C6
:103F100055215C48FFF7BEFF00BDAA230B704B7014
:103F2000F0238B700323CB70BA230B7100234B71EA
:103F30008871431CDAB2CA7170472DE9F0415248CA
:103F40000078AA2801D1012000E00020AF214E4ACC
:103F50005170084000287DD01046807810287AD112
:103F600011464979127941EA022108B207F07BFE35
:103F7000804607F009FF06460022444B07F004FE86
:103F8000044607F03DFF424908603F49C9793E4A6F
:103F9000927941EA022108B207F065FE804607F0F7
:103FA000F3FE064600223B4B07F0EEFD044607F009
:103FB00027FF374948603449497A334A127A41EA3F
:103FC000022108B207F04FFE804607F0DDFE0646EC
:103FD00000222E4B07F0D8FD044607F011FF2C49B4
:103FE00088602949C97A284A927A41EA022108B2AE
:103FF00007F039FE804607F0C7FE06460022234B35
:1040000007F0C2FD044607F0FBFE214908621E4985
:10401000497B1D4A127B41EA022108B207F023FEC8
:10402000804607F0B1FE064600221A4B07F0ACFDB1
:10403000044607F0E5FE164948621349C97B124A57
:10404000927B41EA022108B207F00DFE804607F09C
:104050009BFE01E0BCE025E0064600220B4B07F08A
:1040600093FD044607F0CCFE094988620649887D25
:10407000004911E0730700200000C842C409002075
:10408000D0090020100900206804002000005940D9
:10409000480A002000408F40FFF73FFF0821AA4850
:1040A000FFF72AFCA948807811287DD1A7494979D2
:1040B000A64A127941EA022108B207F0D4FD8046EF
:1040C00007F062FE06460022A14B07F05DFD0446A4
:1040D00007F096FE9F4908649C49C9799B4A9279EA
:1040E00041EA022108B207F0BEFD804607F04CFE0F
:1040F00006460022984B07F047FD044607F080FE75
:10410000944948649149497A904A127A41EA0221D5
:1041100008B207F0A8FD804607F036FE06460022EA
:104120008B4B07F031FD044607F06AFE894988642D
:104130008649C97A854A927A41EA022108B207F093
:1041400092FD804607F020FE06460022804B07F0D5
:104150001BFD044607F054FE7E4908667B49497BF7
:104160007A4A127B41EA022108B207F07CFD8046C0
:1041700007F00AFE06460022774B07F005FD0446CD
:1041800007F03EFE0146734841667049C97B6F4A9D
:10419000927B41EA022108B207F065FD804607F0F4
:1041A000F3FD0646002200E011E0694B07F0ECFC4D
:1041B000044607F025FE0146664881666349887D0E
:1041C0006149FFF7AAFE08215F48FFF795FB00BF92
:1041D000BDE8F08130B5014600200023002200BF79
:1041E00005E00C5CAA2C00D103E0441CE0B240289E
:1041F000F7DB00BF0C5CAA2C41D100F10D040C5D73
:10420000FF2C3CD1002205E084180C5D1C44E3B275
:10421000541CE2B20C2AF7DB00F10C040C5D9C424A
:104220002DD1441C0C5D512C29D1041D0D5DC41CE5
:104230000C5D45EA042424B2484D2C80841D0D5D9C
:10424000441D0C5D45EA042424B2444DAC8200F1C7
:1042500008040D5DC41D0C5D45EA042424B2404DE4
:104260006C8000F109040C5D2C7300F10B040D5DF2
:10427000641E0C5D45EA0424394D85F8344030BD98
:104280002DE9F04F85B004462078B8B935498869E2
:10429000354907F0F0FA054634484079344BCDE90A
:1042A0000050DA68196858680023FFF7D1FC122122
:1042B0002548FFF721FB0120207041E020780128EC
:1042C0003ED127490869284907F0D5FA834607F007
:1042D000F6FC05462149886A07F0F1FC06461F49AD
:1042E000C86A07F0ECFC07461A4908691E4907F03E
:1042F000C2FA834607F0E3FC80461849C86907F014
:10430000DEFC81461549886807F0D9FC82461448CE
:10431000CDE90187CDE90365C07B00EB800040005B
:104320000E4A0090B2F91610B2F902004B465246FE
:10433000FFF709FD17210448FFF7DEFA002020707F
:1043400005B0BDE8F08F000073070020680400206E
:1043500000005940480A002000408F40140A002005
:10436000D0090020800900200000C842C4090020B4
:10437000C807002010B5FA48806940F04000F849AD
:104380008861F848006880B2F6490860084600680D
:10439000F5490843F3490860F2480830006840F4E2
:1043A0007040F049083108601221F04807F0F3F935
:1043B00010BD10B5EE480078002856D0E948001D21
:1043C0000068C0F3003088B1E648001D0068C0F303
:1043D000403058B1E348001D0068C0F3803028B178
:1043E000E048001D0068C0F3C030E8BB0A20FFF7BA
:1043F000E7FB0020DE490870DA48001D0068C0F3C2
:10440000003008B9012010BDD648001D0068C0F377
:10441000403048B900BFD348001D0068C0F34030A9
:104420000028F8D00220EEE7CE48001D0068C0F357
:10443000803048B900BFCB48001D0068C0F3803011
:104440000028F8D00320DEE7C648001D0068C0F34E
:10445000C03028BB00BFC348001D0068C0F3C03097
:104460000028F8D00420CEE7FFE7BE48001D006812
:10447000C0F30030A0B1BB48001D0068C0F380301D
:1044800070B1B848001D0068C0F3803040B1B54835
:10449000001D0068C0F3C03010B10120B44908709D
:1044A0000020B0E710B504462078012806D0022885
:1044B0004BD003287ED0042846D191E0AD48008837
:1044C000401CAC49088008460088082801DB012010
:1044D0000880A8480088082835D2DFE800F03404B6
:1044E0000A11181F262D0020A3490870FEF787F82F
:1044F00029E00120A04908700020FEF780F822E0A2
:1045000002209D4908700020FEF779F81BE0032087
:10451000994908700020FEF772F814E004209649CB
:1045200008700020FEF76BF80DE005209249087036
:104530000020FEF764F806E006208F49087000208E
:10454000FEF75DF800BF00BF59E08B4800780228F5
:1045500003D089480078062832D188480088401C5A
:104560008649088081480088401C804908800846A8
:10457000008809280ADB08460078801EC1B280A2A4
:104580007820FEF7D0FA0120784908807748008823
:10459000012815DB75480078401EC1B279A2782049
:1045A000FEF7C1FA71480088022809DB6F480078DD
:1045B000801E00E005E0C1B271A27820FEF7B3FAD8
:1045C0001DE06D480078022802D1684801F039FCEE
:1045D00069480078062802D1644801F083FD0EE0A6
:1045E00065480078022802D1604801F0B2FC6248B8
:1045F0000078062802D15D4801F09FFD00BF00BF92
:1046000010BD10B56048C07901287AD15F480078A4
:10461000062871D2DFE800F070031229405701200C
:10462000594908705A480078401C594908700120BF
:104630005549887048710020C8715EE001205249D8
:10464000087053480078401C5149087001204E49B9
:10465000C8704F48C078401C4D49C87001204A4975
:10466000887048710020C87147E0012046490870F1
:1046700047480078401C4649087001204249C870EC
:104680004348C078401C4249C87001203E498870A8
:1046900048710020C87130E001203B4908703C4857
:1046A0000078401C3A49087001203749C8703848E2
:1046B000C078401C3649C870012033498870487161
:1046C0000020C87119E001202F4908703048007897
:1046D000401C2F49087001202B49C8702C48C07815
:1046E000401C2B49C8700120274988704871002060
:1046F000C87102E005E0FFE700BF00BF0020FDF742
:104700007EFF10BD10B50446207858B90020FDF793
:1047100076FF20A203211E20FEF735FA2078401CE8
:1047200020701CE0207801280BD10020FDF767FFE6
:1047300019A203211E20FEF726FA2078401C2070C3
:104740000DE0207802280AD10020FDF758FF13A2BF
:1047500003211E20FEF717FA2078401C207010BDA0
:10476000001002400418014000008888B4070020AF
:104770006C0300206E030020C003002070030020A3
:10478000200000005F000000C4090020E5030020B5
:10479000DD03002033000000320000003100000083
:1047A0002DE9FF5F07460C461546A846A146C448BA
:1047B00000680390C248006803904946C1480068F9
:1047C00007F001F802904146029806F0FCFF83468C
:1047D0005946029807F081F801903846039907F08E
:1047E00044F80090019907F046F88346039906F0D3
:1047F000EAFF06464FF07E50019907F036F88346EF
:10480000029907F038F88246AE48C0F800A0AC48DC
:104810000660304604B0BDE8F09F2DE9FF5F074613
:104820000C461546A846A146A74800680390A6482E
:10483000006803904946A548006806F0C4FF02904E
:104840004146029806F0BFFF83465946029807F09A
:1048500044F801903846039907F007F80090019951
:1048600007F009F88346039906F0ADFF06464FF0BE
:104870007E50019906F0F9FF8346029906F0FBFF8E
:1048800082469248C0F800A08F480660304604B0C7
:10489000BDE8F09F2DE9FF5F07460C461546A84688
:1048A000A1468B48006803908948006803904946F8
:1048B0008848006806F087FF02904146029806F09B
:1048C00082FF83465946029807F007F80190384660
:1048D000039906F0CAFF0090019906F0CCFF8346C9
:1048E000039906F070FF06464FF07E50019906F0DE
:1048F000BCFF8346029906F0BEFF82467548C0F8A9
:1049000000A073480660304604B0BDE8F09F2DE972
:10491000F04705460E463146284606F0ACFF804675
:1049200031464FF07E5006F0A0FF81466A4801688C
:10493000484606F0A0FF0746414606F044FF0446FD
:10494000654804602046BDE8F0872DE9F04705463C
:104950000E463146284606F08EFF804631464FF01F
:104960007E5006F082FF81465C480168484606F0AA
:1049700082FF0746414606F026FF0446574804607A
:104980002046BDE8F0872DE9F05F04464FF07F59DF
:104990004FF07C51204606F06EFF824625462E469B
:1049A0004F48A0EB660635462946504606F063FFA1
:1049B0008346294606F05FFF8046494606F058FFC9
:1049C0000746294606F057FF05462846BDE8F09FF2
:1049D00010B504460021204607F02EFA02D284F0DA
:1049E000004010BD2046FCE770B50446002120467B
:1049F00007F022FA05D284F00045284607F05FF957
:104A000070BD204607F05BF9FAE72DE9F041044656
:104A10002146204606F02FFF07464FF0804106F062
:104A20005CFF06464FF07E5106F022FF0546284601
:104A3000BDE8F0812DE9F04104462146204606F00C
:104A40001AFF8046214606F016FF0746254906F064
:104A500044FF0646214606F00BFF05462846BDE802
:104A6000F0812DE9F05F82464FF0000B00215046A7
:104A700007F0E2F901D28AF0004A1B49504607F0DC
:104A8000E5F901D2DFF860A0504607F07DF98046D5
:104A90000022164B07F006F806460022144B06F0DB
:104AA000FEFF044607F0ACF983460021584607F0A4
:104AB000C3F901D24FF0000B5846BDE8F09F00004B
:104AC000780300207C030020800300208403002062
:104AD000880300208C030020900300209403002012
:104AE000DF59375F0000C040CDCC4C3F0000F43FA1
:104AF0000000F03F10B50020FDF781FD80A20321EA
:104B00001E20FEF740F810BD10B54820FFF73CF816
:104B1000FEF759FEFDF77CFCFFF72CFCFDF773FE5A
:104B200000F024F9FFF7E6FFFEF7E0FD4FF4E13176
:104B30004820FEF789FF4FF416512420FEF7F7FEB8
:104B40004FF4E120FEF780FE40F6C410FEF716FE9B
:104B500010BD10B56D49086907F0B1F8044622464A
:104B600005210420FEF70CFC6848427B0621042046
:104B7000FEF706FC6648007807F07EF8044601233D
:104B800022465D210520FEF781F96248C26A0123B1
:104B90005D210620FEF77AF95F480123062142686D
:104BA0000720FEF773F95C480123302102680720D3
:104BB000FEF76CF9584801235A21C2680720FEF716
:104BC00065F95248C07B28B954A202210020FDF7A4
:104BD000AAFF12E04D48C07B012805D151A2022155
:104BE0000020FDF7A0FF08E04848C07B022804D160
:104BF0004FA202210020FDF796FF464890F83000B2
:104C0000022805D14CA203210020FDF78CFF08E00B
:104C1000404890F8300020B949A203210020FDF758
:104C200082FF49484078012805D148A2042100208C
:104C3000FDF779FF07E04448407820B946A20421F7
:104C40000020FDF770FF474803230621026C002077
:104C5000FEF71CF9434803232A21426C0020FEF78B
:104C600015F9404802235421826C0020FEF70EF90A
:104C70003C4802230621026E0120FEF707F939485D
:104C800003232A21426E0120FEF700F93548032351
:104C90005421826E0120FEF7F9F8334802233221B5
:104CA00082691846FEF7F2F81A49B1F9020006F0D7
:104CB000DAFF04460123224632210320FEF7E6F8FC
:104CC0001449B1F9160006F0CEFF0446012322462E
:104CD00032210420FEF7DAF80C49486A06F0C3FFD7
:104CE0000446012322465A210320FEF7CFF8094843
:104CF000C26901235A210420FEF7C8F810BD000044
:104D000057656C436F6D652100000000D0090020DD
:104D10002A000020140A0020C8070020656E647471
:104D2000726100007374617274747261000000003B
:104D3000747261696E670000506F733A204F4E00C5
:104D4000506F733A4F464600C40900204C414E4410
:104D50003A204F4E000000004C414E443A4F464628
:104D600000000000480A0020800900204FF0814028
:104D70002049486020491F4881600021C1601F49C7
:104D800041631F4981631F49C1634FF08140194945
:104D900048661949174881660021C1661749C0F85D
:104DA00094101749C0F898101649C0F89C1016487E
:104DB0001649086100030F49C1F8C40014490D48A1
:104DC000C0F8C8100021C0F8CC101249C0F8F41087
:104DD0001149C0F8F8104FF07C51C0F8FC100F4991
:104DE000416141670E49C0F8D410002001490870A4
:104DF00070470000DC070020A69B443C713D0A3F41
:104E00000AD7233D6666E63F00003443C80700200A
:104E10000AD7A33B00006040CDCC4C3D000070435E
:104E20000000484307B58AB00B9880F00040059019
:104E3000FA480168059806F0C6FC0690F848C06A72
:104E400001460590069806F010FD0990F5480069A6
:104E50000690099906F0B7FCF24908610846006916
:104E60000590084680680490059906F004FDEE4917
:104E7000069006F032FDEB49C8610846C069EB496F
:104E8000069006F0D9FF01D2E8480AE0E548C0697B
:104E9000E749069006F0DAFF01D2E54801E0E14873
:104EA000C069E049C861E3480168099806F0DDFC83
:104EB0000490DC48C06801460390049806F0DBFCCF
:104EC0000690D84840680390099906F0D4FC0490F5
:104ED000D448C06901460390049806F074FC05901C
:104EE000069906F070FCCF494862D24909980860DB
:104EF0000A9880F000400590CF480168059806F0B8
:104F000062FC0690C648806A01460590069806F045
:104F10005AFC0890C348006F0690089906F053FCAD
:104F2000C04908670846006F05900846806E0490E7
:104F3000059906F0A0FCBC49069006F0CEFCB949E4
:104F4000C8670846C06FB949069006F075FF01D2E0
:104F5000B6480AE0B348C06FB549069006F076FF40
:104F600001D2B34801E0AF48C06FAE49C867B3484B
:104F70000168089806F079FC0490AA48C06E0146C2
:104F80000390049806F077FC0690A648006F029004
:104F9000A448806E0190029906F06DFC0490A1482F
:104FA000406E0290089906F066FC0390049906F0A2
:104FB0000AFC0590069906F006FC9A49C1F884009F
:104FC0009E49089808609E48006906900C9906F072
:104FD0004CFC07909A48006901460690002006F0B4
:104FE0002BFF11D8964800699649069006F024FFD9
:104FF0000AD89549079806F01FFF11D293480799E0
:1050000006F0E1FB07900BE08E49079806F01EFFC3
:1050100006D88E48079906F028FC80F000400790DB
:105020008048D0F8D0000690079906F0CCFB7D4967
:10503000C1F8D0000846D0F8D00005900846D0F856
:10504000C8000490059906F016FC7749069006F012
:1050500044FC7449C1F8DC000846D0F8DC00734910
:10506000069006F0E9FE01D270480CE06D48D0F8D9
:10507000DC006F49069006F0E9FE01D26C4802E0C0
:105080006848D0F8DC006749C1F8DC007048016866
:10509000079806F0EAFB04906248D0F8CC0001467D
:1050A0000390049806F0E7FB06905E48D0F8C40031
:1050B0000390079906F0DFFB04905A48D0F8DC0013
:1050C00001460390049806F07EFB0590069906F0D1
:1050D0007AFB5449C1F8E4000020087008460078C3
:1050E000401C08705B48806A06900846D0F884002F
:1050F0000590069906F0B9FB09904A48D0F894004B
:105100000690099906F0B7FB01464648C0F8A8107A
:10511000D0F8A0000690099906F055FB01464148D9
:10512000C0F8A010D0F8A00005903E48D0F8980034
:105130000490059906F09FFB3B49069006F0CDFBD5
:1051400001463848C0F8AC10D0F8AC00374906909A
:1051500006F072FE01D235490CE03248D0F8AC00BE
:105160003349069006F072FE01D2314902E02D4823
:10517000D0F8AC102B48C0F8AC103748016809983B
:1051800006F073FB06902748D0F89C000146059076
:10519000069806F070FB01462248C0F8B0102E4970
:1051A000099808602B48406A06901E48406A05909E
:1051B000069906F05AFB08901A48406B0690089929
:1051C00006F059FB014617488164006C0690089967
:1051D00006F0F9FA014613480164006C0590114885
:1051E000806B0490059906F046FB0F49069006F087
:1051F00074FB01460B48C164C06C0C49069006F074
:105200001BFE01D209492BE00648C06C08490690F4
:1052100006F01CFE22D2064922E00000A003002076
:10522000140A0020DC070020000048430000F0C101
:105230000000F041AC030020A4030020A8030020DC
:10524000C807002000003443000034C30000B4430A
:10525000B0030020180B0020B4030020FB48C16CF1
:10526000FA48C164FA480168089806F0FEFA069008
:10527000F648C06B01460590069806F0FCFA014618
:10528000F2480165F24908980860F048D0F8E40057
:1052900080F000400690EF48C06A014605900698ED
:1052A00006F0E3FA0790E948D0F800010690079964
:1052B00006F089FA0146E548C0F80011D0F800016F
:1052C0000590E248D0F8F8000490059906F0D3FA6A
:1052D000E149069006F001FB0146DC48C0F80C11DC
:1052E000D0F80C01DD49069006F0A6FD01D2DB499D
:1052F0000CE0D648D0F80C01D949069006F0A6FD7E
:1053000001D2D74902E0D148D0F80C11CF48C0F8FB
:105310000C11D0F8F4000690079906F0ACFA01469B
:10532000CA48C0F80811CF480168079806F09DFAEE
:105330000690C648D0F8FC0001460590069806F095
:105340009AFA0146C148C0F81011C649079808608A
:10535000BE48D0F8B0000590BC48D0F8A800049032
:10536000059906F030FA0690B848D0F8AC0001462E
:105370000590069806F027FA0146B448C0F8B41024
:10538000006D0590B148806C0490059906F01BFAF9
:105390000690AE48C06C01460590069806F013FAD8
:1053A0000146AA484165D0F810010590A748D0F8F9
:1053B00008010490059906F006FA0690A348D0F873
:1053C0000C0101460590069806F0FDF901469F483C
:1053D000C0F81411002141704078401C9B4948706E
:1053E000A148407900287DD0002009909F48007C8A
:1053F000022878D19C484079002874D09B480088C6
:1054000009909B480089B0F57A7F02DB012098491A
:1054100088724FF49662974995480A3001F03FFD33
:105420009348807A0128E4D1904880699249089095
:1054300006F00CFD07D20020904908604FF07A502A
:105440008F4908600CE000208C4908608C49086096
:10545000142000231A461E2100908A48FEF781F985
:1054600088480168099808448049C9680844A0F53B
:105470007A70049006F0F7FB05907448D0F8B400F9
:1054800001460490059806F09EF906906F48406D1D
:1054900001460590069806F096F907906B48D0F8FB
:1054A000140101460690079806F08DF9089006F061
:1054B00006FC00B26F4908807248416809980844A8
:1054C0006A49C9680844A0F57A70049006F0CBFBDD
:1054D00005905E48D0F8B40001460490059806F0A7
:1054E00072F901E090E06EE006905848406D014688
:1054F0000590069806F0B9F907905448D0F81401C1
:1055000001460690079806F0B0F9089006F0D7FB20
:1055100000B2584948805B4881680998084453495B
:10552000C9680844A0F57A70049006F09CFB0590C9
:105530004648D0F8B40001460490059806F095F965
:1055400006904248406D01460590069806F08DF998
:1055500007903E48D0F8140101460690079806F0DF
:1055600032F9089006F0ABFB00B24249888045480A
:10557000C168099808443D49C9680844A0F57A7093
:10558000049006F070FB05903048D0F8B400014656
:105590000490059806F069F906902C48406D014684
:1055A0000590069806F00FF907902848D0F81401E6
:1055B00001460690079806F058F9089006F07FFB20
:1055C00000B22C49C8802B48B0F90000002802DC4A
:1055D0000020284908802748B0F90200002802DC92
:1055E0000020244948802348B0F90400002802DC48
:1055F0000020204988801F48B0F90600002802DCFE
:1056000000201C49C88009E000201A49C880888011
:105610004880088000210D480161016712484079E7
:1056200090B31448C08880B209901248808880B234
:1056300008901048408880B207900E48008880B2D9
:10564000069007A90EC9FEF766F824E0DC070020E3
:10565000B8030020180B0020000048430000F0C1F0
:105660000000F041BC030020C40900208009002094
:1056700024090020980300200000A041A00300207E
:10568000A403002000090020FFE700231A46194662
:105690001846FEF740F80DB000BD000010B5FB48FD
:1056A000407A012811D1FA480078FA4981F832008D
:1056B000F748401CFDF7B7FF0020F4494872F6494F
:1056C0000870F6490880F6490880F6A200215620A5
:1056D000FDF729FAEF4991F8310006F0CDFA0446BA
:1056E0000123224656211846FDF7D0FBE94991F8DF
:1056F000320006F0C1FA0446012322465621022058
:10570000FDF7C4FBE9A207210020FDF70CFADF48F2
:10571000007A012805D1E7A207214020FDF703FA0E
:1057200004E0E5A207214020FDF7FDF910BD10B50A
:10573000E2A200211020FDF7F6F9E4480323062138
:10574000426E0220FDF7A2FBE04804232A21826E6C
:105750000220FDF79BFBDD4802235421C26E184650
:10576000FDF794FBD94802230621D0F894200320AA
:10577000FDF78CFBD54804232A21D0F8982003207C
:10578000FDF784FBD14803235421D0F89C20184610
:10579000FDF77CFBCEA205211020FDF7C4F9CB4814
:1057A00003230621D0F8C4200846FDF76FFBC74845
:1057B00004232A21D0F8C8200620FDF767FBC34840
:1057C00002235421D0F8CC200620FDF75FFBBF4810
:1057D00002230621D0F8F4200720FDF757FBBB4831
:1057E00004232A21D0F8F8200720FDF74FFBB74803
:1057F00003235421D0F8FC200720FDF747FB10BD00
:1058000010B5B5A200211E20FDF78DF9B5A2022129
:105810000020FDF788F9B4A203210020FDF783F9E9
:10582000B2A204210020FDF77EF9B1A205210020DB
:10583000FDF779F9AFA206210020FDF774F9AEA2B9
:1058400007210020FDF76FF9AC4803231821026CF3
:105850000220FDF71BFBA94803231821426C1846C0
:10586000FDF714FBA54802231821826C0420FDF7E4
:105870000DFBA24802231821026E0520FDF706FB4E
:105880009E4803231821426E0620FDF7FFFA9B482D
:1058900003231821826E0720FDF7F8FA10BD2DE9C9
:1058A000F04197A200211E20FDF73DF98DA20221B3
:1058B0000020FDF738F98CA203210020FDF733F911
:1058C0008AA204210020FDF72EF989A205210020DB
:1058D000FDF729F987A206210020FDF724F986A209
:1058E00007210020FDF71FF98849B1F9000006F0F3
:1058F000C8F907460022864B06F046F9054606F031
:105900007FFA04460223224618211846FDF7BEFA04
:105910007E49B1F9020006F0B4F9074600227D4B3A
:1059200006F032F9054606F06BFA044604232246D7
:1059300018210320FDF7AAFA7449B1F9040006F012
:10594000A0F907460022724B06F01EF9054606F044
:1059500057FA04460223224618210420FDF796FA3E
:105960006D49B1F9000006F08CF907460022684B3A
:1059700006F00AF9054606F043FA044602232246D9
:1059800018210520FDF782FA6349B1F9020006F0FB
:1059900078F9074600225F4B06F0F6F8054606F058
:1059A0002FFA04460423224618210620FDF76EFA3A
:1059B0005949B1F9040006F064F907460022544B36
:1059C00006F0E2F8054606F01BFA044602232246DA
:1059D00018210720FDF75AFABDE8F08110B54FA253
:1059E00000210846FDF79FF84E480078062822D28D
:1059F000DFE800F02103090F151B4BA200211E2038
:105A0000FDF791F818E04AA200211E20FDF78BF85F
:105A100012E04AA200211E20FDF785F80CE04AA200
:105A200000211E20FDF77FF806E04AA200211E207B
:105A3000FDF779F800E000BF00BF49A20221002075
:105A4000FDF771F8494801233621026B0220FDF76A
:105A50001DFA47A203210020FDF765F848480123FD
:105A60005421026B0320FDF711FA46A20421002005
:105A7000FDF759F80548007A012805D10DA2042147
:105A80004020FDF750F887E080E00000C4090020C6
:105A90001A050020140A00205A0000205E00002091
:105AA0005C00002062696E61727900005265634992
:105AB0006D673A00594553004E4F200041555454EC
:105AC00049545544452E504944000000DC0700204D
:105AD0005941572E50494400504F53484F4C442E83
